:1000000000010020C1000000ED000000F100000030
:10001000F5000000F9000000FD00000000000000F5
:1000200000000000000000000000000001010000CE
:100030000501000000000000090100000D010000A2
:100040001101000011010000110100001101000068
:100050001101000011010000110100001101000058
:100060001101000011010000110100001101000048
:100070001101000015010000190100001D01000020
:100080002101000025010000290100002D010000D0
:1000900031010000350100000000000000000000F8
:1000A000390100003D010000410100000000000096
:1000B00045010000490100004D0100005101000010
:1000C00000B583B0074B019304E0019B1A1D019218
:1000D00000221A60019A044B9A42F6D300F008FC01
:1000E000FEE7C0460000002000000020FEE7C046FA
:1000F000FEE7C046FEE7C046FEE7C046FEE7C04654
:10010000FEE7C046FEE7C046FEE7C046FEE7C04643
:10011000FEE7C046FEE7C046FEE7C046FEE7C04633
:10012000FEE7C046FEE7C046FEE7C046FEE7C04623
:10013000FEE7C046FEE7C046FEE7C046FEE7C04613
:10014000FEE7C046FEE7C046FEE7C046FEE7C04603
:10015000FEE7C04682B00190054B1B6804330122C4
:100160001A60034B1B68019A1A60C04602B07047C0
:10017000440E000082B00190044B1A68019B9B0062
:10018000D3181B68180002B07047C046400E00002C
:1001900082B001900091019A009BD3180193019BBA
:1001A000180002B07047C04600B585B001900091BC
:1001B000009B084A5A431000019B3222FF325343EE
:1001C000190000F015FD03000393039B180005B010
:1001D00000BDC046407E050000B585B00190019B82
:1001E0003222FF3253431900044800F001FD03009E
:1001F0000393039B180005B000BDC0460046C3230F
:1002000082B001900091019A009BD3180193019B49
:10021000180002B07047C04600B587B00190009149
:10022000019B0F49180000F0E3FC03000593059BB8
:100230003C21180000F0DCFC03000493059B3C21EA
:10024000180000F0BBFD0B000393049B64225A438B
:10025000039BD3180093009B180007B000BDC04655
:100260006D041E0000B59FB00190019B6421180031
:1002700000F0BEFC03001A001BAB9A601BAB9B682E
:10028000642252425A43019BD3180A21180000F0FD
:10029000AFFC03001A001BAB5A601BAB9B686422C7
:1002A00052425A43019BD2181BAB5B680A21494258
:1002B0004B43D2181BAB1A601BAB9B68092B00D9B0
:1002C000E0E09A00E84BD3181B689F4618AB012268
:1002D0009A6009AB01229A6015AB01229A6006ABC5
:1002E00000229A600CAB01229A6012AB01229A6044
:1002F0000FAB01229A60C6E018AB00229A6009ABEE
:1003000000229A6015AB01229A6006AB00229A6027
:100310000CAB00229A6012AB01229A600FAB002254
:100320009A60B0E018AB01229A6009AB00229A6093
:1003300015AB01229A6006AB01229A600CAB012238
:100340009A6012AB00229A600FAB01229A609AE089
:1003500018AB01229A6009AB00229A6015AB01220A
:100360009A6006AB01229A600CAB00229A6012AB35
:1003700001229A600FAB01229A6084E018AB002240
:100380009A6009AB01229A6015AB01229A6006AB14
:1003900001229A600CAB00229A6012AB01229A6093
:1003A0000FAB00229A606EE018AB01229A6009AB95
:1003B00001229A6015AB00229A6006AB01229A6076
:1003C0000CAB00229A6012AB01229A600FAB0122A3
:1003D0009A6058E018AB01229A6009AB01229A603A
:1003E00015AB00229A6006AB01229A600CAB012289
:1003F0009A6012AB01229A600FAB01229A6042E030
:1004000018AB01229A6009AB00229A6015AB012259
:100410009A6006AB00229A600CAB00229A6012AB85
:1004200001229A600FAB00229A602CE018AB0122E7
:100430009A6009AB01229A6015AB01229A6006AB63
:1004400001229A600CAB01229A6012AB01229A60E1
:100450000FAB01229A6016E018AB01229A6009AB3B
:1004600001229A6015AB01229A6006AB01229A60C4
:100470000CAB00229A6012AB01229A600FAB0022F3
:100480009A6000E0C0461BAB5B68092B00D9E0E036
:100490009A00764BD3181B689F4618AB01225A600E
:1004A00009AB01225A6015AB01225A6006AB00224B
:1004B0005A600CAB01225A6012AB01225A600FAB9A
:1004C00001225A60C6E018AB00225A6009AB002234
:1004D0005A6015AB01225A6006AB00225A600CAB81
:1004E00000225A6012AB01225A600FAB00225A6000
:1004F000B0E018AB01225A6009AB00225A6015AB7C
:1005000001225A6006AB01225A600CAB01225A60EC
:1005100012AB00225A600FAB01225A609AE018AB6E
:1005200001225A6009AB00225A6015AB01225A60C1
:1005300006AB01225A600CAB00225A6012AB0122BA
:100540005A600FAB01225A6084E018AB00225A6057
:1005500009AB01225A6015AB01225A6006AB012299
:100560005A600CAB00225A6012AB01225A600FABEA
:1005700000225A606EE018AB01225A6009AB0122DA
:100580005A6015AB00225A6006AB01225A600CABD0
:1005900000225A6012AB01225A600FAB01225A604E
:1005A00058E018AB01225A6009AB01225A6015AB22
:1005B00000225A6006AB01225A600CAB01225A603D
:1005C00012AB01225A600FAB01225A6042E018AB15
:1005D00001225A6009AB00225A6015AB01225A6011
:1005E00006AB00225A600CAB00225A6012AB01220B
:1005F0005A600FAB00225A602CE018AB01225A60FF
:1006000009AB01225A6015AB01225A6006AB0122E8
:100610005A600CAB01225A6012AB01225A600FAB38
:1006200001225A6016E018AB01225A6009AB012280
:100630005A6015AB01225A6006AB01225A600CAB1E
:1006400000225A6012AB01225A600FAB00225A609E
:1006500000E0C0461BAB1B68092B00D9E6E09A00FE
:10066000034BD3181B689F46C80D0000F00D000017
:10067000180E000018AB01221A6009AB01221A60A3
:1006800015AB01221A6006AB00221A600CAB0122E6
:100690001A6012AB01221A600FAB01221A60C6E089
:1006A00018AB00221A6009AB00221A6015AB0122B8
:1006B0001A6006AB00221A600CAB00221A6012AB63
:1006C00001221A600FAB00221A60B0E018AB0122C1
:1006D0001A6009AB00221A6015AB01221A6006AB42
:1006E00001221A600CAB01221A6012AB00221A60C0
:1006F0000FAB01221A609AE018AB01221A6009AB15
:1007000000221A6015AB01221A6006AB01221A60A2
:100710000CAB00221A6012AB01221A600FAB01224F
:100720001A6084E018AB00221A6009AB01221A603B
:1007300015AB01221A6006AB01221A600CAB002235
:100740001A6012AB01221A600FAB00221A606EE031
:1007500018AB01221A6009AB01221A6015AB002206
:100760001A6006AB01221A600CAB00221A6012ABB1
:1007700001221A600FAB01221A6058E018AB012267
:100780001A6009AB01221A6015AB00221A6006AB91
:1007900001221A600CAB01221A6012AB01221A600E
:1007A0000FAB01221A6042E018AB01221A6009ABBC
:1007B00000221A6015AB01221A6006AB00221A60F3
:1007C0000CAB00221A6012AB01221A600FAB0022A0
:1007D0001A602CE018AB01221A6009AB01221A60E2
:1007E00015AB01221A6006AB01221A600CAB012284
:1007F0001A6012AB01221A600FAB01221A6016E0D8
:1008000018AB01221A6009AB01221A6015AB012254
:100810001A6006AB01221A600CAB00221A6012AB00
:1008200001221A600FAB00221A6000E0C04606AB3E
:100830009B685A0009AB9B68D3185A000CAB9B68A5
:10084000D3185A000FAB9B68D3185A0012AB9B68A1
:10085000D3185A0015AB9B68D3185A0018AB9B6885
:10086000D21803AB9A6006AB5B685A0009AB5B68B1
:10087000D3185A000CAB5B68D3185A000FAB5B68F7
:10088000D3185A0012AB5B68D3185A0015AB5B68DB
:10089000D3185A0018AB5B68D21803AB5A6006AB8A
:1008A0001B685A0009AB1B68D3185A000CAB1B68B5
:1008B000D3185A000FAB1B68D3185A0012AB1B6831
:1008C000D3185A0015AB1B68D3185A0018AB1B6815
:1008D000D21803AB1A6003AB9B68DA0103AB5B6809
:1008E000D318DA0103AB1B68D31818001FB000BD82
:1008F00000B593B0002311930023109300230F93AE
:100900006B4601229A606B4603225A606B460622B0
:100910001A60B54B0E9300230D9300230C93002314
:100920000B9300230A93002309930020FFF722FC76
:10093000030008930120FFF71DFC03000793042028
:10094000FFF718FC03000693079B012B00D0CAE0B9
:100950000220FFF70FFC03000593119B002B00D131
:1009600082E0059B012B58D16B460F9A9200D35819
:10097000082B09DC6B460F9A9200D358591C6B4622
:100980000F9A9200D15004E06B460F9A920000211A
:10099000D1506B469B6864225A4311006B465A68DB
:1009A00013009B009B185B00CA186B461B68D3188A
:1009B0001800FFF757FC03008022D20594466344D9
:1009C0001800FFF7C7FB6B469B68042B12DC6B46D5
:1009D0009B6864225343FA22D20099186B465A68E6
:1009E00013009B009B185B00CA186B461B68D3184A
:1009F0000E9357E06B469B6864225343FA229200A1
:100A000099186B465A6813009B009B185B00CA1824
:100A10006B461B68D3180E9344E0059B022B41D113
:100A20000F9B002B02D1002311933BE00F9B013B56
:100A30000F936B469B6864225A4311006B465A68B9
:100A400013009B009B185B00CA186B461B68D318E9
:100A50001800FFF707FC03008022D2059446634488
:100A60001800FFF777FB1DE0059B012B05D1109BBC
:100A7000002B02D100230D9314E0059B012B05D11F
:100A8000109B012B02D100230B930BE0059B022B43
:100A900008D1109B022B03DC109B0133109301E063
:100AA00000231093059B042B1DD1012311930223D6
:100AB0000F936B469B6864225A4311006B465A6839
:100AC00013009B009B185B00CA186B461B68D31869
:100AD0001800FFF7C7FB03008022D2059446634449
:100AE0001800FFF737FB089B012B24D10320FFF7E9
:100AF00041FB030004930E9A049B11001800FFF7BA
:100B000053FB03000C930E9A0D9B11001800FFF786
:100B10003FFB03000D93049A0B9B11001800FFF795
:100B20006FFB03000B930A9A0B9B11001800FFF751
:100B300073FB03000A93069B012B0AD10520FFF7E4
:100B400019FB03000393039B1800FFF745FB030009
:100B50000993119B002B00D0E7E6109B012B34D0AA
:100B600002DC002B05D03DE0022B14D0032B1FD05C
:100B700038E00D9B1D49180000F03AF803001800FA
:100B8000FFF770FB0300802292059446634418002F
:100B9000FFF7E0FA26E00C9B1800FFF763FB030069
:100BA000C022D205944663441800FFF7D3FA19E037
:100BB000099B1800FFF756FB03008022120694469B
:100BC00063441800FFF7C6FA0CE00A9B1800FFF711
:100BD00049FB0300A0221206944663441800FFF765
:100BE000B9FAC046A1E6C04658080000A086010038
:100BF00003460B437FD4002243088B4274D303097E
:100C00008B425FD3030A8B4244D3030B8B4228D31E
:100C1000030C8B420DD3FF22090212BA030C8B4244
:100C200002D31212090265D0030B8B4219D300E0E4
:100C3000090AC30B8B4201D3CB03C01A5241830B69
:100C40008B4201D38B03C01A5241430B8B4201D319
:100C50004B03C01A5241030B8B4201D30B03C01A42
:100C60005241C30A8B4201D3CB02C01A5241830ABC
:100C70008B4201D38B02C01A5241430A8B4201D3EB
:100C80004B02C01A5241030A8B4201D30B02C01A15
:100C90005241CDD2C3098B4201D3CB01C01A52417C
:100CA00083098B4201D38B01C01A524143098B4205
:100CB00001D34B01C01A524103098B4201D30B01EE
:100CC000C01A5241C3088B4201D3CB00C01A524113
:100CD00083088B4201D38B00C01A524143088B42D8
:100CE00001D34B00C01A5241411A00D20146524171
:100CF000104670475DE0CA0F00D04942031000D390
:100D00004042534000229C4603098B422DD3030AE4
:100D10008B4212D3FC22890112BA030A8B420CD3F4
:100D2000890192118B4208D3890192118B4204D31D
:100D300089013AD0921100E08909C3098B4201D39D
:100D4000CB01C01A524183098B4201D38B01C01AD7
:100D5000524143098B4201D34B01C01A524103094E
:100D60008B4201D30B01C01A5241C3088B4201D3FD
:100D7000CB00C01A524183088B4201D38B00C01AAA
:100D80005241D9D243088B4201D34B00C01A524181
:100D9000411A00D20146634652415B10104601D30E
:100DA0004042002B00D54942704763465B1000D398
:100DB000404201B5002000F005F802BD0029F8D03E
:100DC00016E770477047C046CC020000F8020000EA
:100DD00024030000500300007C030000A80300006F
:100DE000D4030000000400002C040000580400009C
:100DF0009A040000C6040000F20400001E05000072
:100E00004A05000076050000A2050000CE0500009E
:100E1000FA0500002606000074060000A006000087
:100E2000CC060000F8060000240700005007000070
:100E30007C070000A8070000D4070000000800009D
:080E400000000040000000501A
:00000001FF
